{
  "_format": "hh-sol-artifact-1",
  "contractName": "NftMinter",
  "sourceName": "contracts/nftMinter.sol",
  "abi": [
    {
      "inputs": [
        {
          "internalType": "string",
          "name": "_CollectionName",
          "type": "string"
        },
        {
          "internalType": "string",
          "name": "_symbol",
          "type": "string"
        }
      ],
      "stateMutability": "nonpayable",
      "type": "constructor"
    },
    {
      "anonymous": false,
      "inputs": [
        {
          "indexed": true,
          "internalType": "address",
          "name": "owner",
          "type": "address"
        },
        {
          "indexed": true,
          "internalType": "address",
          "name": "approved",
          "type": "address"
        },
        {
          "indexed": true,
          "internalType": "uint256",
          "name": "tokenId",
          "type": "uint256"
        }
      ],
      "name": "Approval",
      "type": "event"
    },
    {
      "anonymous": false,
      "inputs": [
        {
          "indexed": true,
          "internalType": "address",
          "name": "owner",
          "type": "address"
        },
        {
          "indexed": true,
          "internalType": "address",
          "name": "operator",
          "type": "address"
        },
        {
          "indexed": false,
          "internalType": "bool",
          "name": "approved",
          "type": "bool"
        }
      ],
      "name": "ApprovalForAll",
      "type": "event"
    },
    {
      "anonymous": false,
      "inputs": [
        {
          "indexed": true,
          "internalType": "address",
          "name": "from",
          "type": "address"
        },
        {
          "indexed": true,
          "internalType": "address",
          "name": "to",
          "type": "address"
        },
        {
          "indexed": true,
          "internalType": "uint256",
          "name": "tokenId",
          "type": "uint256"
        }
      ],
      "name": "Transfer",
      "type": "event"
    },
    {
      "inputs": [],
      "name": "Reveal",
      "outputs": [],
      "stateMutability": "nonpayable",
      "type": "function"
    },
    {
      "inputs": [
        {
          "internalType": "address",
          "name": "to",
          "type": "address"
        },
        {
          "internalType": "uint256",
          "name": "tokenId",
          "type": "uint256"
        }
      ],
      "name": "approve",
      "outputs": [],
      "stateMutability": "nonpayable",
      "type": "function"
    },
    {
      "inputs": [
        {
          "internalType": "address",
          "name": "owner",
          "type": "address"
        }
      ],
      "name": "balanceOf",
      "outputs": [
        {
          "internalType": "uint256",
          "name": "",
          "type": "uint256"
        }
      ],
      "stateMutability": "view",
      "type": "function"
    },
    {
      "inputs": [
        {
          "internalType": "string",
          "name": "_newCID",
          "type": "string"
        }
      ],
      "name": "changeCID",
      "outputs": [],
      "stateMutability": "nonpayable",
      "type": "function"
    },
    {
      "inputs": [
        {
          "internalType": "uint256",
          "name": "_amount",
          "type": "uint256"
        },
        {
          "internalType": "uint256",
          "name": "_price",
          "type": "uint256"
        }
      ],
      "name": "enableBatch",
      "outputs": [],
      "stateMutability": "nonpayable",
      "type": "function"
    },
    {
      "inputs": [],
      "name": "flipSaleState",
      "outputs": [],
      "stateMutability": "nonpayable",
      "type": "function"
    },
    {
      "inputs": [
        {
          "internalType": "uint256",
          "name": "tokenId",
          "type": "uint256"
        }
      ],
      "name": "getApproved",
      "outputs": [
        {
          "internalType": "address",
          "name": "",
          "type": "address"
        }
      ],
      "stateMutability": "view",
      "type": "function"
    },
    {
      "inputs": [],
      "name": "getPrice",
      "outputs": [
        {
          "internalType": "uint256",
          "name": "",
          "type": "uint256"
        }
      ],
      "stateMutability": "view",
      "type": "function"
    },
    {
      "inputs": [],
      "name": "getTotalMinted",
      "outputs": [
        {
          "internalType": "uint256",
          "name": "",
          "type": "uint256"
        }
      ],
      "stateMutability": "view",
      "type": "function"
    },
    {
      "inputs": [
        {
          "internalType": "address",
          "name": "owner",
          "type": "address"
        },
        {
          "internalType": "address",
          "name": "operator",
          "type": "address"
        }
      ],
      "name": "isApprovedForAll",
      "outputs": [
        {
          "internalType": "bool",
          "name": "",
          "type": "bool"
        }
      ],
      "stateMutability": "view",
      "type": "function"
    },
    {
      "inputs": [
        {
          "internalType": "uint256",
          "name": "_amount",
          "type": "uint256"
        }
      ],
      "name": "mint",
      "outputs": [],
      "stateMutability": "payable",
      "type": "function"
    },
    {
      "inputs": [],
      "name": "name",
      "outputs": [
        {
          "internalType": "string",
          "name": "",
          "type": "string"
        }
      ],
      "stateMutability": "view",
      "type": "function"
    },
    {
      "inputs": [],
      "name": "nftsMinted",
      "outputs": [
        {
          "internalType": "uint256",
          "name": "",
          "type": "uint256"
        }
      ],
      "stateMutability": "view",
      "type": "function"
    },
    {
      "inputs": [],
      "name": "owner",
      "outputs": [
        {
          "internalType": "address payable",
          "name": "",
          "type": "address"
        }
      ],
      "stateMutability": "view",
      "type": "function"
    },
    {
      "inputs": [
        {
          "internalType": "uint256",
          "name": "tokenId",
          "type": "uint256"
        }
      ],
      "name": "ownerOf",
      "outputs": [
        {
          "internalType": "address",
          "name": "",
          "type": "address"
        }
      ],
      "stateMutability": "view",
      "type": "function"
    },
    {
      "inputs": [],
      "name": "price",
      "outputs": [
        {
          "internalType": "uint256",
          "name": "",
          "type": "uint256"
        }
      ],
      "stateMutability": "view",
      "type": "function"
    },
    {
      "inputs": [
        {
          "internalType": "address",
          "name": "from",
          "type": "address"
        },
        {
          "internalType": "address",
          "name": "to",
          "type": "address"
        },
        {
          "internalType": "uint256",
          "name": "tokenId",
          "type": "uint256"
        }
      ],
      "name": "safeTransferFrom",
      "outputs": [],
      "stateMutability": "nonpayable",
      "type": "function"
    },
    {
      "inputs": [
        {
          "internalType": "address",
          "name": "from",
          "type": "address"
        },
        {
          "internalType": "address",
          "name": "to",
          "type": "address"
        },
        {
          "internalType": "uint256",
          "name": "tokenId",
          "type": "uint256"
        },
        {
          "internalType": "bytes",
          "name": "_data",
          "type": "bytes"
        }
      ],
      "name": "safeTransferFrom",
      "outputs": [],
      "stateMutability": "nonpayable",
      "type": "function"
    },
    {
      "inputs": [
        {
          "internalType": "address",
          "name": "operator",
          "type": "address"
        },
        {
          "internalType": "bool",
          "name": "approved",
          "type": "bool"
        }
      ],
      "name": "setApprovalForAll",
      "outputs": [],
      "stateMutability": "nonpayable",
      "type": "function"
    },
    {
      "inputs": [
        {
          "internalType": "string",
          "name": "baseURI_",
          "type": "string"
        }
      ],
      "name": "setBaseURI",
      "outputs": [],
      "stateMutability": "nonpayable",
      "type": "function"
    },
    {
      "inputs": [
        {
          "internalType": "uint256",
          "name": "_newPrice",
          "type": "uint256"
        }
      ],
      "name": "setMintFee",
      "outputs": [],
      "stateMutability": "nonpayable",
      "type": "function"
    },
    {
      "inputs": [
        {
          "internalType": "address",
          "name": "_to",
          "type": "address"
        }
      ],
      "name": "setOwner",
      "outputs": [],
      "stateMutability": "nonpayable",
      "type": "function"
    },
    {
      "inputs": [
        {
          "internalType": "bytes4",
          "name": "interfaceId",
          "type": "bytes4"
        }
      ],
      "name": "supportsInterface",
      "outputs": [
        {
          "internalType": "bool",
          "name": "",
          "type": "bool"
        }
      ],
      "stateMutability": "view",
      "type": "function"
    },
    {
      "inputs": [],
      "name": "symbol",
      "outputs": [
        {
          "internalType": "string",
          "name": "",
          "type": "string"
        }
      ],
      "stateMutability": "view",
      "type": "function"
    },
    {
      "inputs": [
        {
          "internalType": "uint256",
          "name": "index",
          "type": "uint256"
        }
      ],
      "name": "tokenByIndex",
      "outputs": [
        {
          "internalType": "uint256",
          "name": "",
          "type": "uint256"
        }
      ],
      "stateMutability": "view",
      "type": "function"
    },
    {
      "inputs": [
        {
          "internalType": "address",
          "name": "owner",
          "type": "address"
        },
        {
          "internalType": "uint256",
          "name": "index",
          "type": "uint256"
        }
      ],
      "name": "tokenOfOwnerByIndex",
      "outputs": [
        {
          "internalType": "uint256",
          "name": "",
          "type": "uint256"
        }
      ],
      "stateMutability": "view",
      "type": "function"
    },
    {
      "inputs": [
        {
          "internalType": "uint256",
          "name": "tokenId",
          "type": "uint256"
        }
      ],
      "name": "tokenURI",
      "outputs": [
        {
          "internalType": "string",
          "name": "",
          "type": "string"
        }
      ],
      "stateMutability": "view",
      "type": "function"
    },
    {
      "inputs": [],
      "name": "totalCurrentlyMintable",
      "outputs": [
        {
          "internalType": "uint256",
          "name": "",
          "type": "uint256"
        }
      ],
      "stateMutability": "view",
      "type": "function"
    },
    {
      "inputs": [],
      "name": "totalSupply",
      "outputs": [
        {
          "internalType": "uint256",
          "name": "",
          "type": "uint256"
        }
      ],
      "stateMutability": "view",
      "type": "function"
    },
    {
      "inputs": [
        {
          "internalType": "address",
          "name": "from",
          "type": "address"
        },
        {
          "internalType": "address",
          "name": "to",
          "type": "address"
        },
        {
          "internalType": "uint256",
          "name": "tokenId",
          "type": "uint256"
        }
      ],
      "name": "transferFrom",
      "outputs": [],
      "stateMutability": "nonpayable",
      "type": "function"
    },
    {
      "inputs": [
        {
          "internalType": "address",
          "name": "queryWallet",
          "type": "address"
        }
      ],
      "name": "walletOfOwner",
      "outputs": [
        {
          "internalType": "uint256[]",
          "name": "",
          "type": "uint256[]"
        }
      ],
      "stateMutability": "view",
      "type": "function"
    }
  ],
  "bytecode": "0x60806040526127106010556040518060600160405280602281526020016200496c60229139601290805190602001906200003b9291906200014b565b506040518060600160405280602f81526020016200498e602f9139601390805190602001906200006d9291906200014b565b503480156200007b57600080fd5b50604051620049bd380380620049bd8339818101604052810190620000a1919062000279565b81818160009080519060200190620000bb9291906200014b565b508060019080519060200190620000d49291906200014b565b5050506000600a60146101000a81548160ff0219169083151502179055506000600e8190555033600a60006101000a81548173ffffffffffffffffffffffffffffffffffffffff021916908373ffffffffffffffffffffffffffffffffffffffff1602179055506000600f81905550505062000482565b828054620001599062000393565b90600052602060002090601f0160209004810192826200017d5760008555620001c9565b82601f106200019857805160ff1916838001178555620001c9565b82800160010185558215620001c9579182015b82811115620001c8578251825591602001919060010190620001ab565b5b509050620001d89190620001dc565b5090565b5b80821115620001f7576000816000905550600101620001dd565b5090565b6000620002126200020c8462000327565b620002fe565b90508281526020810184848401111562000231576200023062000462565b5b6200023e8482856200035d565b509392505050565b600082601f8301126200025e576200025d6200045d565b5b815162000270848260208601620001fb565b91505092915050565b600080604083850312156200029357620002926200046c565b5b600083015167ffffffffffffffff811115620002b457620002b362000467565b5b620002c28582860162000246565b925050602083015167ffffffffffffffff811115620002e657620002e562000467565b5b620002f48582860162000246565b9150509250929050565b60006200030a6200031d565b9050620003188282620003c9565b919050565b6000604051905090565b600067ffffffffffffffff8211156200034557620003446200042e565b5b620003508262000471565b9050602081019050919050565b60005b838110156200037d57808201518184015260208101905062000360565b838111156200038d576000848401525b50505050565b60006002820490506001821680620003ac57607f821691505b60208210811415620003c357620003c2620003ff565b5b50919050565b620003d48262000471565b810181811067ffffffffffffffff82111715620003f657620003f56200042e565b5b80604052505050565b7f4e487b7100000000000000000000000000000000000000000000000000000000600052602260045260246000fd5b7f4e487b7100000000000000000000000000000000000000000000000000000000600052604160045260246000fd5b600080fd5b600080fd5b600080fd5b600080fd5b6000601f19601f8301169050919050565b6144da80620004926000396000f3fe6080604052600436106101d85760003560e01c80636352211e11610102578063a199e61a11610095578063c87b56dd11610064578063c87b56dd1461069b578063e985e9c5146106d8578063eddd0d9c14610715578063f40638111461073e576101d8565b8063a199e61a146105f7578063a22cb46514610620578063a56d4a0814610649578063b88d4fde14610672576101d8565b806395d89b41116100d157806395d89b411461055a57806398d5fdca14610585578063a035b1fe146105b0578063a0712d68146105db576101d8565b80636352211e1461049e57806366b9f0d2146104db57806370a08231146104f25780638da5cb5b1461052f576101d8565b806323b872dd1161017a578063438b630011610149578063438b6300146103d05780634f6ccce71461040d57806355f804b31461044a57806360df19e014610473576101d8565b806323b872dd1461032a5780632f745c591461035357806334918dfd1461039057806342842e0e146103a7576101d8565b8063095ea7b3116101b6578063095ea7b3146102825780630ca1c5c9146102ab57806313af4035146102d657806318160ddd146102ff576101d8565b806301ffc9a7146101dd57806306fdde031461021a578063081812fc14610245575b600080fd5b3480156101e957600080fd5b5061020460048036038101906101ff9190612ddf565b610769565b604051610211919061353f565b60405180910390f35b34801561022657600080fd5b5061022f6107e3565b60405161023c919061355a565b60405180910390f35b34801561025157600080fd5b5061026c60048036038101906102679190612e82565b610875565b604051610279919061349b565b60405180910390f35b34801561028e57600080fd5b506102a960048036038101906102a49190612d9f565b6108fa565b005b3480156102b757600080fd5b506102c0610a12565b6040516102cd919061385c565b60405180910390f35b3480156102e257600080fd5b506102fd60048036038101906102f89190612c1c565b610a1c565b005b34801561030b57600080fd5b50610314610af0565b604051610321919061385c565b60405180910390f35b34801561033657600080fd5b50610351600480360381019061034c9190612c89565b610afd565b005b34801561035f57600080fd5b5061037a60048036038101906103759190612d9f565b610b5d565b604051610387919061385c565b60405180910390f35b34801561039c57600080fd5b506103a5610c02565b005b3480156103b357600080fd5b506103ce60048036038101906103c99190612c89565b610cbe565b005b3480156103dc57600080fd5b506103f760048036038101906103f29190612c1c565b610cde565b604051610404919061351d565b60405180910390f35b34801561041957600080fd5b50610434600480360381019061042f9190612e82565b610d8c565b604051610441919061385c565b60405180910390f35b34801561045657600080fd5b50610471600480360381019061046c9190612e39565b610dfd565b005b34801561047f57600080fd5b50610488610ea7565b604051610495919061385c565b60405180910390f35b3480156104aa57600080fd5b506104c560048036038101906104c09190612e82565b610ead565b6040516104d2919061349b565b60405180910390f35b3480156104e757600080fd5b506104f0610f5f565b005b3480156104fe57600080fd5b5061051960048036038101906105149190612c1c565b61100c565b604051610526919061385c565b60405180910390f35b34801561053b57600080fd5b506105446110c4565b60405161055191906134b6565b60405180910390f35b34801561056657600080fd5b5061056f6110ea565b60405161057c919061355a565b60405180910390f35b34801561059157600080fd5b5061059a61117c565b6040516105a7919061385c565b60405180910390f35b3480156105bc57600080fd5b506105c5611186565b6040516105d2919061385c565b60405180910390f35b6105f560048036038101906105f09190612e82565b61118c565b005b34801561060357600080fd5b5061061e60048036038101906106199190612e39565b6113e0565b005b34801561062c57600080fd5b5061064760048036038101906106429190612d5f565b61148a565b005b34801561065557600080fd5b50610670600480360381019061066b9190612eaf565b6114a0565b005b34801561067e57600080fd5b5061069960048036038101906106949190612cdc565b611596565b005b3480156106a757600080fd5b506106c260048036038101906106bd9190612e82565b6115f8565b6040516106cf919061355a565b60405180910390f35b3480156106e457600080fd5b506106ff60048036038101906106fa9190612c49565b61175a565b60405161070c919061353f565b60405180910390f35b34801561072157600080fd5b5061073c60048036038101906107379190612e82565b6117ee565b005b34801561074a57600080fd5b50610753611888565b604051610760919061385c565b60405180910390f35b60007f780e9d63000000000000000000000000000000000000000000000000000000007bffffffffffffffffffffffffffffffffffffffffffffffffffffffff1916827bffffffffffffffffffffffffffffffffffffffffffffffffffffffff191614806107dc57506107db8261188e565b5b9050919050565b6060600080546107f290613bb0565b80601f016020809104026020016040519081016040528092919081815260200182805461081e90613bb0565b801561086b5780601f106108405761010080835404028352916020019161086b565b820191906000526020600020905b81548152906001019060200180831161084e57829003601f168201915b5050505050905090565b600061088082611970565b6108bf576040517f08c379a00000000000000000000000000000000000000000000000000000000081526004016108b69061371c565b60405180910390fd5b6004600083815260200190815260200160002060009054906101000a900473ffffffffffffffffffffffffffffffffffffffff169050919050565b600061090582610ead565b90508073ffffffffffffffffffffffffffffffffffffffff168373ffffffffffffffffffffffffffffffffffffffff161415610976576040517f08c379a000000000000000000000000000000000000000000000000000000000815260040161096d906137dc565b60405180910390fd5b8073ffffffffffffffffffffffffffffffffffffffff166109956119dc565b73ffffffffffffffffffffffffffffffffffffffff1614806109c457506109c3816109be6119dc565b61175a565b5b610a03576040517f08c379a00000000000000000000000000000000000000000000000000000000081526004016109fa9061369c565b60405180910390fd5b610a0d83836119e4565b505050565b6000600e54905090565b600a60009054906101000a900473ffffffffffffffffffffffffffffffffffffffff1673ffffffffffffffffffffffffffffffffffffffff163373ffffffffffffffffffffffffffffffffffffffff1614610aac576040517f08c379a0000000000000000000000000000000000000000000000000000000008152600401610aa39061357c565b60405180910390fd5b80600a60006101000a81548173ffffffffffffffffffffffffffffffffffffffff021916908373ffffffffffffffffffffffffffffffffffffffff16021790555050565b6000600880549050905090565b610b0e610b086119dc565b82611a9d565b610b4d576040517f08c379a0000000000000000000000000000000000000000000000000000000008152600401610b449061381c565b60405180910390fd5b610b58838383611b7b565b505050565b6000610b688361100c565b8210610ba9576040517f08c379a0000000000000000000000000000000000000000000000000000000008152600401610ba09061359c565b60405180910390fd5b600660008473ffffffffffffffffffffffffffffffffffffffff1673ffffffffffffffffffffffffffffffffffffffff168152602001908152602001600020600083815260200190815260200160002054905092915050565b600a60009054906101000a900473ffffffffffffffffffffffffffffffffffffffff1673ffffffffffffffffffffffffffffffffffffffff163373ffffffffffffffffffffffffffffffffffffffff1614610c92576040517f08c379a0000000000000000000000000000000000000000000000000000000008152600401610c899061357c565b60405180910390fd5b600a60149054906101000a900460ff1615600a60146101000a81548160ff021916908315150217905550565b610cd983838360405180602001604052806000815250611596565b505050565b60606000610ceb8361100c565b905060008167ffffffffffffffff811115610d0957610d08613d47565b5b604051908082528060200260200182016040528015610d375781602001602082028036833780820191505090505b50905060005b82811015610d8157610d4f8582610b5d565b828281518110610d6257610d61613d18565b5b6020026020010181815250508080610d7990613c13565b915050610d3d565b508092505050919050565b6000610d96610af0565b8210610dd7576040517f08c379a0000000000000000000000000000000000000000000000000000000008152600401610dce9061383c565b60405180910390fd5b60088281548110610deb57610dea613d18565b5b90600052602060002001549050919050565b600a60009054906101000a900473ffffffffffffffffffffffffffffffffffffffff1673ffffffffffffffffffffffffffffffffffffffff163373ffffffffffffffffffffffffffffffffffffffff1614610e8d576040517f08c379a0000000000000000000000000000000000000000000000000000000008152600401610e849061357c565b60405180910390fd5b8060129080519060200190610ea3929190612a30565b5050565b600e5481565b6000806002600084815260200190815260200160002060009054906101000a900473ffffffffffffffffffffffffffffffffffffffff169050600073ffffffffffffffffffffffffffffffffffffffff168173ffffffffffffffffffffffffffffffffffffffff161415610f56576040517f08c379a0000000000000000000000000000000000000000000000000000000008152600401610f4d906136dc565b60405180910390fd5b80915050919050565b600a60009054906101000a900473ffffffffffffffffffffffffffffffffffffffff1673ffffffffffffffffffffffffffffffffffffffff163373ffffffffffffffffffffffffffffffffffffffff1614610fef576040517f08c379a0000000000000000000000000000000000000000000000000000000008152600401610fe69061357c565b60405180910390fd5b6001601160006101000a81548160ff021916908315150217905550565b60008073ffffffffffffffffffffffffffffffffffffffff168273ffffffffffffffffffffffffffffffffffffffff16141561107d576040517f08c379a0000000000000000000000000000000000000000000000000000000008152600401611074906136bc565b60405180910390fd5b600360008373ffffffffffffffffffffffffffffffffffffffff1673ffffffffffffffffffffffffffffffffffffffff168152602001908152602001600020549050919050565b600a60009054906101000a900473ffffffffffffffffffffffffffffffffffffffff1681565b6060600180546110f990613bb0565b80601f016020809104026020016040519081016040528092919081815260200182805461112590613bb0565b80156111725780601f1061114757610100808354040283529160200191611172565b820191906000526020600020905b81548152906001019060200180831161115557829003601f168201915b5050505050905090565b6000600b54905090565b600b5481565b60001515600a60149054906101000a900460ff161515146111e2576040517f08c379a00000000000000000000000000000000000000000000000000000000081526004016111d9906135fc565b60405180910390fd5b600a60009054906101000a900473ffffffffffffffffffffffffffffffffffffffff1673ffffffffffffffffffffffffffffffffffffffff163373ffffffffffffffffffffffffffffffffffffffff16146112f15780600b546112459190613a4d565b341015611287576040517f08c379a000000000000000000000000000000000000000000000000000000000815260040161127e9061365c565b60405180910390fd5b600a60009054906101000a900473ffffffffffffffffffffffffffffffffffffffff1673ffffffffffffffffffffffffffffffffffffffff166108fc349081150290604051600060405180830381858888f193505050501580156112ef573d6000803e3d6000fd5b505b600a811115611335576040517f08c379a000000000000000000000000000000000000000000000000000000000815260040161132c906137fc565b60405180910390fd5b600f5481600e54611346919061398f565b1115611387576040517f08c379a000000000000000000000000000000000000000000000000000000000815260040161137e9061375c565b60405180910390fd5b60005b818110156113dc576001600e546113a1919061398f565b600e819055506113b333600e54611dd7565b6113c9600e546113c4600e54611fa5565b61212e565b80806113d490613c13565b91505061138a565b5050565b600a60009054906101000a900473ffffffffffffffffffffffffffffffffffffffff1673ffffffffffffffffffffffffffffffffffffffff163373ffffffffffffffffffffffffffffffffffffffff1614611470576040517f08c379a00000000000000000000000000000000000000000000000000000000081526004016114679061357c565b60405180910390fd5b8060139080519060200190611486929190612a30565b5050565b61149c6114956119dc565b83836121a2565b5050565b600a60009054906101000a900473ffffffffffffffffffffffffffffffffffffffff1673ffffffffffffffffffffffffffffffffffffffff163373ffffffffffffffffffffffffffffffffffffffff1614611530576040517f08c379a00000000000000000000000000000000000000000000000000000000081526004016115279061357c565b60405180910390fd5b80600b8190555081600e54611545919061398f565b600f81905550601054600f541115611592576040517f08c379a0000000000000000000000000000000000000000000000000000000008152600401611589906137bc565b60405180910390fd5b5050565b6115a76115a16119dc565b83611a9d565b6115e6576040517f08c379a00000000000000000000000000000000000000000000000000000000081526004016115dd9061381c565b60405180910390fd5b6115f28484848461230f565b50505050565b606061160382611970565b611642576040517f08c379a00000000000000000000000000000000000000000000000000000000081526004016116399061379c565b60405180910390fd5b6000600d6000848152602001908152602001600020805461166290613bb0565b80601f016020809104026020016040519081016040528092919081815260200182805461168e90613bb0565b80156116db5780601f106116b0576101008083540402835291602001916116db565b820191906000526020600020905b8154815290600101906020018083116116be57829003601f168201915b5050505050905060006116ec61236b565b9050601160009054906101000a900460ff1661172b57806040516020016117139190613479565b60405160208183030381529060405292505050611755565b806013836040516020016117419392919061343d565b604051602081830303815290604052925050505b919050565b6000600560008473ffffffffffffffffffffffffffffffffffffffff1673ffffffffffffffffffffffffffffffffffffffff16815260200190815260200160002060008373ffffffffffffffffffffffffffffffffffffffff1673ffffffffffffffffffffffffffffffffffffffff16815260200190815260200160002060009054906101000a900460ff16905092915050565b600a60009054906101000a900473ffffffffffffffffffffffffffffffffffffffff1673ffffffffffffffffffffffffffffffffffffffff163373ffffffffffffffffffffffffffffffffffffffff161461187e576040517f08c379a00000000000000000000000000000000000000000000000000000000081526004016118759061357c565b60405180910390fd5b80600b8190555050565b600f5481565b60007f80ac58cd000000000000000000000000000000000000000000000000000000007bffffffffffffffffffffffffffffffffffffffffffffffffffffffff1916827bffffffffffffffffffffffffffffffffffffffffffffffffffffffff1916148061195957507f5b5e139f000000000000000000000000000000000000000000000000000000007bffffffffffffffffffffffffffffffffffffffffffffffffffffffff1916827bffffffffffffffffffffffffffffffffffffffffffffffffffffffff1916145b806119695750611968826123fd565b5b9050919050565b60008073ffffffffffffffffffffffffffffffffffffffff166002600084815260200190815260200160002060009054906101000a900473ffffffffffffffffffffffffffffffffffffffff1673ffffffffffffffffffffffffffffffffffffffff1614159050919050565b600033905090565b816004600083815260200190815260200160002060006101000a81548173ffffffffffffffffffffffffffffffffffffffff021916908373ffffffffffffffffffffffffffffffffffffffff160217905550808273ffffffffffffffffffffffffffffffffffffffff16611a5783610ead565b73ffffffffffffffffffffffffffffffffffffffff167f8c5be1e5ebec7d5bd14f71427d1e84f3dd0314c0f7b2291e5b200ac8c7c3b92560405160405180910390a45050565b6000611aa882611970565b611ae7576040517f08c379a0000000000000000000000000000000000000000000000000000000008152600401611ade9061367c565b60405180910390fd5b6000611af283610ead565b90508073ffffffffffffffffffffffffffffffffffffffff168473ffffffffffffffffffffffffffffffffffffffff161480611b6157508373ffffffffffffffffffffffffffffffffffffffff16611b4984610875565b73ffffffffffffffffffffffffffffffffffffffff16145b80611b725750611b71818561175a565b5b91505092915050565b8273ffffffffffffffffffffffffffffffffffffffff16611b9b82610ead565b73ffffffffffffffffffffffffffffffffffffffff1614611bf1576040517f08c379a0000000000000000000000000000000000000000000000000000000008152600401611be89061377c565b60405180910390fd5b600073ffffffffffffffffffffffffffffffffffffffff168273ffffffffffffffffffffffffffffffffffffffff161415611c61576040517f08c379a0000000000000000000000000000000000000000000000000000000008152600401611c589061361c565b60405180910390fd5b611c6c838383612467565b611c776000826119e4565b6001600360008573ffffffffffffffffffffffffffffffffffffffff1673ffffffffffffffffffffffffffffffffffffffff1681526020019081526020016000206000828254611cc79190613aa7565b925050819055506001600360008473ffffffffffffffffffffffffffffffffffffffff1673ffffffffffffffffffffffffffffffffffffffff1681526020019081526020016000206000828254611d1e919061398f565b92505081905550816002600083815260200190815260200160002060006101000a81548173ffffffffffffffffffffffffffffffffffffffff021916908373ffffffffffffffffffffffffffffffffffffffff160217905550808273ffffffffffffffffffffffffffffffffffffffff168473ffffffffffffffffffffffffffffffffffffffff167fddf252ad1be2c89b69c2b068fc378daa952ba7f163c4a11628f55a4df523b3ef60405160405180910390a4505050565b600073ffffffffffffffffffffffffffffffffffffffff168273ffffffffffffffffffffffffffffffffffffffff161415611e47576040517f08c379a0000000000000000000000000000000000000000000000000000000008152600401611e3e906136fc565b60405180910390fd5b611e5081611970565b15611e90576040517f08c379a0000000000000000000000000000000000000000000000000000000008152600401611e87906135dc565b60405180910390fd5b611e9c60008383612467565b6001600360008473ffffffffffffffffffffffffffffffffffffffff1673ffffffffffffffffffffffffffffffffffffffff1681526020019081526020016000206000828254611eec919061398f565b92505081905550816002600083815260200190815260200160002060006101000a81548173ffffffffffffffffffffffffffffffffffffffff021916908373ffffffffffffffffffffffffffffffffffffffff160217905550808273ffffffffffffffffffffffffffffffffffffffff16600073ffffffffffffffffffffffffffffffffffffffff167fddf252ad1be2c89b69c2b068fc378daa952ba7f163c4a11628f55a4df523b3ef60405160405180910390a45050565b60606000821415611fed576040518060400160405280600181526020017f30000000000000000000000000000000000000000000000000000000000000008152509050612129565b600082905060005b6000821461201f57808061200890613c13565b915050600a826120189190613a1c565b9150611ff5565b60008167ffffffffffffffff81111561203b5761203a613d47565b5b6040519080825280601f01601f19166020018201604052801561206d5781602001600182028036833780820191505090505b50905060008290505b600086146121215760018161208b9190613aa7565b90506000600a808861209d9190613a1c565b6120a79190613a4d565b876120b29190613aa7565b60306120be91906139e5565b905060008160f81b9050808484815181106120dc576120db613d18565b5b60200101907effffffffffffffffffffffffffffffffffffffffffffffffffffffffffffff1916908160001a905350600a886121189190613a1c565b97505050612076565b819450505050505b919050565b61213782611970565b612176576040517f08c379a000000000000000000000000000000000000000000000000000000000815260040161216d9061373c565b60405180910390fd5b80600d6000848152602001908152602001600020908051906020019061219d929190612a30565b505050565b8173ffffffffffffffffffffffffffffffffffffffff168373ffffffffffffffffffffffffffffffffffffffff161415612211576040517f08c379a00000000000000000000000000000000000000000000000000000000081526004016122089061363c565b60405180910390fd5b80600560008573ffffffffffffffffffffffffffffffffffffffff1673ffffffffffffffffffffffffffffffffffffffff16815260200190815260200160002060008473ffffffffffffffffffffffffffffffffffffffff1673ffffffffffffffffffffffffffffffffffffffff16815260200190815260200160002060006101000a81548160ff0219169083151502179055508173ffffffffffffffffffffffffffffffffffffffff168373ffffffffffffffffffffffffffffffffffffffff167f17307eab39ab6107e8899845ad3d59bd9653f200f220920489ca2b5937696c3183604051612302919061353f565b60405180910390a3505050565b61231a848484611b7b565b6123268484848461257b565b612365576040517f08c379a000000000000000000000000000000000000000000000000000000000815260040161235c906135bc565b60405180910390fd5b50505050565b60606012805461237a90613bb0565b80601f01602080910402602001604051908101604052809291908181526020018280546123a690613bb0565b80156123f35780601f106123c8576101008083540402835291602001916123f3565b820191906000526020600020905b8154815290600101906020018083116123d657829003601f168201915b5050505050905090565b60007f01ffc9a7000000000000000000000000000000000000000000000000000000007bffffffffffffffffffffffffffffffffffffffffffffffffffffffff1916827bffffffffffffffffffffffffffffffffffffffffffffffffffffffff1916149050919050565b612472838383612712565b600073ffffffffffffffffffffffffffffffffffffffff168373ffffffffffffffffffffffffffffffffffffffff1614156124b5576124b081612717565b6124f4565b8173ffffffffffffffffffffffffffffffffffffffff168373ffffffffffffffffffffffffffffffffffffffff16146124f3576124f28382612760565b5b5b600073ffffffffffffffffffffffffffffffffffffffff168273ffffffffffffffffffffffffffffffffffffffff16141561253757612532816128cd565b612576565b8273ffffffffffffffffffffffffffffffffffffffff168273ffffffffffffffffffffffffffffffffffffffff161461257557612574828261299e565b5b5b505050565b600061259c8473ffffffffffffffffffffffffffffffffffffffff16612a1d565b15612705578373ffffffffffffffffffffffffffffffffffffffff1663150b7a026125c56119dc565b8786866040518563ffffffff1660e01b81526004016125e794939291906134d1565b602060405180830381600087803b15801561260157600080fd5b505af192505050801561263257506040513d601f19601f8201168201806040525081019061262f9190612e0c565b60015b6126b5573d8060008114612662576040519150601f19603f3d011682016040523d82523d6000602084013e612667565b606091505b506000815114156126ad576040517f08c379a00000000000000000000000000000000000000000000000000000000081526004016126a4906135bc565b60405180910390fd5b805181602001fd5b63150b7a0260e01b7bffffffffffffffffffffffffffffffffffffffffffffffffffffffff1916817bffffffffffffffffffffffffffffffffffffffffffffffffffffffff19161491505061270a565b600190505b949350505050565b505050565b6008805490506009600083815260200190815260200160002081905550600881908060018154018082558091505060019003906000526020600020016000909190919091505550565b6000600161276d8461100c565b6127779190613aa7565b905060006007600084815260200190815260200160002054905081811461285c576000600660008673ffffffffffffffffffffffffffffffffffffffff1673ffffffffffffffffffffffffffffffffffffffff168152602001908152602001600020600084815260200190815260200160002054905080600660008773ffffffffffffffffffffffffffffffffffffffff1673ffffffffffffffffffffffffffffffffffffffff168152602001908152602001600020600084815260200190815260200160002081905550816007600083815260200190815260200160002081905550505b6007600084815260200190815260200160002060009055600660008573ffffffffffffffffffffffffffffffffffffffff1673ffffffffffffffffffffffffffffffffffffffff16815260200190815260200160002060008381526020019081526020016000206000905550505050565b600060016008805490506128e19190613aa7565b905060006009600084815260200190815260200160002054905060006008838154811061291157612910613d18565b5b90600052602060002001549050806008838154811061293357612932613d18565b5b90600052602060002001819055508160096000838152602001908152602001600020819055506009600085815260200190815260200160002060009055600880548061298257612981613ce9565b5b6001900381819060005260206000200160009055905550505050565b60006129a98361100c565b905081600660008573ffffffffffffffffffffffffffffffffffffffff1673ffffffffffffffffffffffffffffffffffffffff168152602001908152602001600020600083815260200190815260200160002081905550806007600084815260200190815260200160002081905550505050565b600080823b905060008111915050919050565b828054612a3c90613bb0565b90600052602060002090601f016020900481019282612a5e5760008555612aa5565b82601f10612a7757805160ff1916838001178555612aa5565b82800160010185558215612aa5579182015b82811115612aa4578251825591602001919060010190612a89565b5b509050612ab29190612ab6565b5090565b5b80821115612acf576000816000905550600101612ab7565b5090565b6000612ae6612ae18461389c565b613877565b905082815260208101848484011115612b0257612b01613d7b565b5b612b0d848285613b6e565b509392505050565b6000612b28612b23846138cd565b613877565b905082815260208101848484011115612b4457612b43613d7b565b5b612b4f848285613b6e565b509392505050565b600081359050612b6681614448565b92915050565b600081359050612b7b8161445f565b92915050565b600081359050612b9081614476565b92915050565b600081519050612ba581614476565b92915050565b600082601f830112612bc057612bbf613d76565b5b8135612bd0848260208601612ad3565b91505092915050565b600082601f830112612bee57612bed613d76565b5b8135612bfe848260208601612b15565b91505092915050565b600081359050612c168161448d565b92915050565b600060208284031215612c3257612c31613d85565b5b6000612c4084828501612b57565b91505092915050565b60008060408385031215612c6057612c5f613d85565b5b6000612c6e85828601612b57565b9250506020612c7f85828601612b57565b9150509250929050565b600080600060608486031215612ca257612ca1613d85565b5b6000612cb086828701612b57565b9350506020612cc186828701612b57565b9250506040612cd286828701612c07565b9150509250925092565b60008060008060808587031215612cf657612cf5613d85565b5b6000612d0487828801612b57565b9450506020612d1587828801612b57565b9350506040612d2687828801612c07565b925050606085013567ffffffffffffffff811115612d4757612d46613d80565b5b612d5387828801612bab565b91505092959194509250565b60008060408385031215612d7657612d75613d85565b5b6000612d8485828601612b57565b9250506020612d9585828601612b6c565b9150509250929050565b60008060408385031215612db657612db5613d85565b5b6000612dc485828601612b57565b9250506020612dd585828601612c07565b9150509250929050565b600060208284031215612df557612df4613d85565b5b6000612e0384828501612b81565b91505092915050565b600060208284031215612e2257612e21613d85565b5b6000612e3084828501612b96565b91505092915050565b600060208284031215612e4f57612e4e613d85565b5b600082013567ffffffffffffffff811115612e6d57612e6c613d80565b5b612e7984828501612bd9565b91505092915050565b600060208284031215612e9857612e97613d85565b5b6000612ea684828501612c07565b91505092915050565b60008060408385031215612ec657612ec5613d85565b5b6000612ed485828601612c07565b9250506020612ee585828601612c07565b9150509250929050565b6000612efb838361341f565b60208301905092915050565b612f1081613aed565b82525050565b612f1f81613adb565b82525050565b6000612f3082613923565b612f3a8185613951565b9350612f45836138fe565b8060005b83811015612f76578151612f5d8882612eef565b9750612f6883613944565b925050600181019050612f49565b5085935050505092915050565b612f8c81613aff565b82525050565b6000612f9d8261392e565b612fa78185613962565b9350612fb7818560208601613b7d565b612fc081613d8a565b840191505092915050565b6000612fd682613939565b612fe08185613973565b9350612ff0818560208601613b7d565b612ff981613d8a565b840191505092915050565b600061300f82613939565b6130198185613984565b9350613029818560208601613b7d565b80840191505092915050565b6000815461304281613bb0565b61304c8186613984565b945060018216600081146130675760018114613078576130ab565b60ff198316865281860193506130ab565b6130818561390e565b60005b838110156130a357815481890152600182019150602081019050613084565b838801955050505b50505092915050565b60006130c1602583613973565b91506130cc82613d9b565b604082019050919050565b60006130e4602b83613973565b91506130ef82613dea565b604082019050919050565b6000613107603283613973565b915061311282613e39565b604082019050919050565b600061312a601c83613973565b915061313582613e88565b602082019050919050565b600061314d602b83613973565b915061315882613eb1565b604082019050919050565b6000613170602483613973565b915061317b82613f00565b604082019050919050565b6000613193601983613973565b915061319e82613f4f565b602082019050919050565b60006131b6601983613973565b91506131c182613f78565b602082019050919050565b60006131d9602c83613973565b91506131e482613fa1565b604082019050919050565b60006131fc601c83613984565b915061320782613ff0565b601c82019050919050565b600061321f603883613973565b915061322a82614019565b604082019050919050565b6000613242602a83613973565b915061324d82614068565b604082019050919050565b6000613265602983613973565b9150613270826140b7565b604082019050919050565b6000613288602083613973565b915061329382614106565b602082019050919050565b60006132ab602c83613973565b91506132b68261412f565b604082019050919050565b60006132ce602c83613973565b91506132d98261417e565b604082019050919050565b60006132f1602083613973565b91506132fc826141cd565b602082019050919050565b6000613314602983613973565b915061331f826141f6565b604082019050919050565b6000613337602f83613973565b915061334282614245565b604082019050919050565b600061335a603783613973565b915061336582614294565b604082019050919050565b600061337d602183613973565b9150613388826142e3565b604082019050919050565b60006133a0602783613973565b91506133ab82614332565b604082019050919050565b60006133c3603183613973565b91506133ce82614381565b604082019050919050565b60006133e6602c83613973565b91506133f1826143d0565b604082019050919050565b6000613409600583613984565b91506134148261441f565b600582019050919050565b61342881613b57565b82525050565b61343781613b57565b82525050565b60006134498286613004565b91506134558285613035565b91506134618284613004565b915061346c826133fc565b9150819050949350505050565b60006134858284613004565b9150613490826131ef565b915081905092915050565b60006020820190506134b06000830184612f16565b92915050565b60006020820190506134cb6000830184612f07565b92915050565b60006080820190506134e66000830187612f16565b6134f36020830186612f16565b613500604083018561342e565b81810360608301526135128184612f92565b905095945050505050565b600060208201905081810360008301526135378184612f25565b905092915050565b60006020820190506135546000830184612f83565b92915050565b600060208201905081810360008301526135748184612fcb565b905092915050565b60006020820190508181036000830152613595816130b4565b9050919050565b600060208201905081810360008301526135b5816130d7565b9050919050565b600060208201905081810360008301526135d5816130fa565b9050919050565b600060208201905081810360008301526135f58161311d565b9050919050565b6000602082019050818103600083015261361581613140565b9050919050565b6000602082019050818103600083015261363581613163565b9050919050565b6000602082019050818103600083015261365581613186565b9050919050565b60006020820190508181036000830152613675816131a9565b9050919050565b60006020820190508181036000830152613695816131cc565b9050919050565b600060208201905081810360008301526136b581613212565b9050919050565b600060208201905081810360008301526136d581613235565b9050919050565b600060208201905081810360008301526136f581613258565b9050919050565b600060208201905081810360008301526137158161327b565b9050919050565b600060208201905081810360008301526137358161329e565b9050919050565b60006020820190508181036000830152613755816132c1565b9050919050565b60006020820190508181036000830152613775816132e4565b9050919050565b6000602082019050818103600083015261379581613307565b9050919050565b600060208201905081810360008301526137b58161332a565b9050919050565b600060208201905081810360008301526137d58161334d565b9050919050565b600060208201905081810360008301526137f581613370565b9050919050565b6000602082019050818103600083015261381581613393565b9050919050565b60006020820190508181036000830152613835816133b6565b9050919050565b60006020820190508181036000830152613855816133d9565b9050919050565b6000602082019050613871600083018461342e565b92915050565b6000613881613892565b905061388d8282613be2565b919050565b6000604051905090565b600067ffffffffffffffff8211156138b7576138b6613d47565b5b6138c082613d8a565b9050602081019050919050565b600067ffffffffffffffff8211156138e8576138e7613d47565b5b6138f182613d8a565b9050602081019050919050565b6000819050602082019050919050565b60008190508160005260206000209050919050565b600081519050919050565b600081519050919050565b600081519050919050565b6000602082019050919050565b600082825260208201905092915050565b600082825260208201905092915050565b600082825260208201905092915050565b600081905092915050565b600061399a82613b57565b91506139a583613b57565b9250827fffffffffffffffffffffffffffffffffffffffffffffffffffffffffffffffff038211156139da576139d9613c5c565b5b828201905092915050565b60006139f082613b61565b91506139fb83613b61565b92508260ff03821115613a1157613a10613c5c565b5b828201905092915050565b6000613a2782613b57565b9150613a3283613b57565b925082613a4257613a41613c8b565b5b828204905092915050565b6000613a5882613b57565b9150613a6383613b57565b9250817fffffffffffffffffffffffffffffffffffffffffffffffffffffffffffffffff0483118215151615613a9c57613a9b613c5c565b5b828202905092915050565b6000613ab282613b57565b9150613abd83613b57565b925082821015613ad057613acf613c5c565b5b828203905092915050565b6000613ae682613b37565b9050919050565b6000613af882613b37565b9050919050565b60008115159050919050565b60007fffffffff0000000000000000000000000000000000000000000000000000000082169050919050565b600073ffffffffffffffffffffffffffffffffffffffff82169050919050565b6000819050919050565b600060ff82169050919050565b82818337600083830152505050565b60005b83811015613b9b578082015181840152602081019050613b80565b83811115613baa576000848401525b50505050565b60006002820490506001821680613bc857607f821691505b60208210811415613bdc57613bdb613cba565b5b50919050565b613beb82613d8a565b810181811067ffffffffffffffff82111715613c0a57613c09613d47565b5b80604052505050565b6000613c1e82613b57565b91507fffffffffffffffffffffffffffffffffffffffffffffffffffffffffffffffff821415613c5157613c50613c5c565b5b600182019050919050565b7f4e487b7100000000000000000000000000000000000000000000000000000000600052601160045260246000fd5b7f4e487b7100000000000000000000000000000000000000000000000000000000600052601260045260246000fd5b7f4e487b7100000000000000000000000000000000000000000000000000000000600052602260045260246000fd5b7f4e487b7100000000000000000000000000000000000000000000000000000000600052603160045260246000fd5b7f4e487b7100000000000000000000000000000000000000000000000000000000600052603260045260246000fd5b7f4e487b7100000000000000000000000000000000000000000000000000000000600052604160045260246000fd5b600080fd5b600080fd5b600080fd5b600080fd5b6000601f19601f8301169050919050565b7f4f6e6c7920746865206f776e65722063616e2063616c6c20746869732066756e60008201527f6374696f6e000000000000000000000000000000000000000000000000000000602082015250565b7f455243373231456e756d657261626c653a206f776e657220696e646578206f7560008201527f74206f6620626f756e6473000000000000000000000000000000000000000000602082015250565b7f4552433732313a207472616e7366657220746f206e6f6e20455243373231526560008201527f63656976657220696d706c656d656e7465720000000000000000000000000000602082015250565b7f4552433732313a20746f6b656e20616c7265616479206d696e74656400000000600082015250565b7f546869732066756e6374696f6e206973206e6f7420617661696c61626c65206160008201527f7420746869732074696d65000000000000000000000000000000000000000000602082015250565b7f4552433732313a207472616e7366657220746f20746865207a65726f2061646460008201527f7265737300000000000000000000000000000000000000000000000000000000602082015250565b7f4552433732313a20617070726f766520746f2063616c6c657200000000000000600082015250565b7f4e6f7420656e6f756768206574686572207761732073656e7400000000000000600082015250565b7f4552433732313a206f70657261746f7220717565727920666f72206e6f6e657860008201527f697374656e7420746f6b656e0000000000000000000000000000000000000000602082015250565b7f536f6d6548617368466f7244656661756c74496d6167652e4a534f4e00000000600082015250565b7f4552433732313a20617070726f76652063616c6c6572206973206e6f74206f7760008201527f6e6572206e6f7220617070726f76656420666f7220616c6c0000000000000000602082015250565b7f4552433732313a2062616c616e636520717565727920666f7220746865207a6560008201527f726f206164647265737300000000000000000000000000000000000000000000602082015250565b7f4552433732313a206f776e657220717565727920666f72206e6f6e657869737460008201527f656e7420746f6b656e0000000000000000000000000000000000000000000000602082015250565b7f4552433732313a206d696e7420746f20746865207a65726f2061646472657373600082015250565b7f4552433732313a20617070726f76656420717565727920666f72206e6f6e657860008201527f697374656e7420746f6b656e0000000000000000000000000000000000000000602082015250565b7f4552433732314d657461646174613a2055524920736574206f66206e6f6e657860008201527f697374656e7420746f6b656e0000000000000000000000000000000000000000602082015250565b7f43616e206e6f74206d696e74206d6f7265207468616e20746865206c696d6974600082015250565b7f4552433732313a207472616e73666572206f6620746f6b656e2074686174206960008201527f73206e6f74206f776e0000000000000000000000000000000000000000000000602082015250565b7f4552433732314d657461646174613a2055524920717565727920666f72206e6f60008201527f6e6578697374656e7420746f6b656e0000000000000000000000000000000000602082015250565b7f596f752063616e206e6f7420656e61626c65206d696e7420666f72206d6f726560008201527f207468616e2074686520746f74616c20616c6c6f776564000000000000000000602082015250565b7f4552433732313a20617070726f76616c20746f2063757272656e74206f776e6560008201527f7200000000000000000000000000000000000000000000000000000000000000602082015250565b7f596f752063616e206e6f74206d696e74206d6f7265207468616e20313020617460008201527f20612074696d6500000000000000000000000000000000000000000000000000602082015250565b7f4552433732313a207472616e736665722063616c6c6572206973206e6f74206f60008201527f776e6572206e6f7220617070726f766564000000000000000000000000000000602082015250565b7f455243373231456e756d657261626c653a20676c6f62616c20696e646578206f60008201527f7574206f6620626f756e64730000000000000000000000000000000000000000602082015250565b7f2e4a534f4e000000000000000000000000000000000000000000000000000000600082015250565b61445181613adb565b811461445c57600080fd5b50565b61446881613aff565b811461447357600080fd5b50565b61447f81613b0b565b811461448a57600080fd5b50565b61449681613b57565b81146144a157600080fd5b5056fea2646970667358221220f2447688e30d2e07500eb850d93e06d7cb804cb37444a4be6a93a5af097d21be64736f6c6343000807003368747470733a2f2f676174657761792e70696e6174612e636c6f75642f697066732f516d5731693159396b6373336b334c3767685035365a644b366369705a45726a38445536554e6a6e555939446a312f",
  "linkReferences": {},
  "deployedLinkReferences": {}
}